:0400000013EF00F00A
:060008007E8203ED22F0F0
:100018007E80E0CF01F001C0E0FF7E9010000CEF81
:0200280020F0C6
:1010000000070809FF040506FF010203FF63003D16
:10101000FF0000004B4D6F746F7220436F6E74724F
:101020006F6C2053797374656D00312D4D6F746F43
:1010300072312020322D4D6F746F723200332D4D7E
:101040006F746F72332020342D4D6F746F723400C3
:10105000536574204D6F746F7220616E676C653AD2
:1010600020004D617820416E676C6520313830007A
:0D107000252E326600256C750025750000E8
:10107E004B50800B546E4B504B24566E4AAE4AEF7B
:10108E0008F04CEF08F04DEF08F056805650D8B4EB
:10109E0053EF08F055EF08F06AEF08F05628D8A481
:1010AE005BEF08F05DEF08F065EF08F0000E486E9C
:1010BE00000E496E000E4A6E000E4B6E4A8E000EEA
:1010CE004B6E72EF08F0000E486E000E496E000E69
:1010DE004A6E000E4B6E4F50800B556E5450551885
:1010EE00D8B47CEF08F07EEF08F07FEF08F0548C58
:1010FE004F504F24556E4EAE87EF08F089EF08F033
:10110E008AEF08F055805550D8B490EF08F092EF62
:10111E0008F0A7EF08F05528D8A498EF08F09AEF3A
:10112E0008F0A2EF08F0000E4C6E000E4D6E000E91
:10113E004E6E000E4F6E4E8E000E4F6EAFEF08F0DD
:10114E00000E4C6E000E4D6E000E4E6E000E4F6E6B
:10115E005650555CD8B0B6EF08F0B8EF08F0DFEF98
:10116E0008F054ACBDEF08F0BFEF08F0C1EF08F087
:10117E00800E541A56C057F055C056F057C055F051
:10118E0048C057F04CC048F057C04CF049C057F01B
:10119E004DC049F057C04DF04AC057F04EC04AF00E
:1011AE0057C04EF04BC057F04FC04BF057C04FF0EA
:1011BE00000E576E565055C050F0516A505E000EDC
:1011CE00515A51BEF4EF08F0515009E11A0E505C1D
:1011DE00D8A0F4EF08F0F6EF08F02DEF09F0485024
:1011EE0049104A104B10D8A4FFEF08F002EF09F097
:1011FE00010E03EF09F0000E576E000E486E000E42
:10120E00496E000E4A6E000E4B6E55C056F036EF0C
:10121E0009F057A015EF09F017EF09F01DEF09F0CF
:10122E00D89057300109576E1FEF09F0D8905732FA
:10123E0048A024EF09F026EF09F027EF09F0578EAA
:10124E004B344B324A3249324832562A5550565C4C
:10125E00D8A034EF09F036EF09F010EF09F054BCC6
:10126E003BEF09F03DEF09F07DEF09F05650D8A4A1
:10127E0043EF09F045EF09F04FEF09F0000E486E0D
:10128E00000E496E000E4A6E000E4B6E9EEF0AF077
:10129E004C5048264D5049224E504A224F504B2218
:1012AE004BA05CEF09F05EEF09F00AEF0AF057A0D1
:1012BE0063EF09F065EF09F06BEF09F0D890573046
:1012CE000109576E6DEF09F0D890573248A072EFB2
:1012DE0009F074EF09F075EF09F0578E4B344B326D
:1012EE004A3249324832562A0AEF0AF04C50485CCC
:1012FE004D5049584E504A584B50800A506E4F50E0
:10130E00800A5058D8B08EEF09F090EF09F0BBEF7D
:10131E0009F048504C5C506E49504D58516E4A5031
:10132E004E58526E4B504F58536EFF0E5024486E0F
:10133E00FF0E5120496EFF0E52204A6EFF0E5320B3
:10134E004B6E800E541A576C5750D8A4B1EF09F05B
:10135E00B3EF09F0C3EF09F0010E4826000E492243
:10136E004A224B22C3EF09F04C50485E4D50495A69
:10137E004E504A5A4F504B5A485049104A104B1033
:10138E00D8A4CCEF09F0CEEF09F003EF0AF05750D6
:10139E00D8A4D4EF09F0D6EF09F003EF0AF0000E4F
:1013AE00486E000E496E000E4A6E000E4B6E9EEF9A
:1013BE000AF0D890483649364A364B3657AEEAEFE1
:1013CE0009F0ECEF09F0EDEF09F0488057A0F2EFCD
:1013DE0009F0F4EF09F0F8EF09F0D8805736FAEF7C
:1013EE0009F0D89057365650D8B400EF0AF002EFF5
:1013FE000AF003EF0AF056064AAE08EF0AF00AEFBB
:10140E000AF0E0EF09F0000E556E57AE11EF0AF03C
:10141E0013EF0AF02BEF0AF057C050F07F0E501664
:10142E00D8B41CEF0AF01EEF0AF022EF0AF0010EFC
:10143E00556E2BEF0AF048A027EF0AF029EF0AF0BD
:10144E002BEF0AF01EEF0AF05550D8B431EF0AF028
:10145E0033EF0AF05EEF0AF0010E4826000E492225
:10146E004A224B224BA03EEF0AF040EF0AF05EEF0D
:10147E000AF048C050F049C051F04AC052F04BC07B
:10148E0053F05334533252325132503250C048F02E
:10149E0051C049F052C04AF053C04BF05628D8B450
:1014AE005BEF0AF05DEF0AF05EEF0AF0562A56285F
:1014BE00D8B464EF0AF066EF0AF06EEF0AF05650F9
:1014CE00D8A46CEF0AF06EEF0AF080EF0AF0000E6F
:1014DE00486E000E496E000E4A6E000E4B6E565050
:1014EE00D8A47CEF0AF07EEF0AF080EF0AF0000E2F
:1014FE00546E56A085EF0AF087EF0AF08AEF0AF0D5
:10150E004A8E8BEF0AF04A9ED89056304B6E54AEF0
:10151E0093EF0AF095EF0AF096EF0AF04B8E48C063
:10152E0048F049C049F04AC04AF04BC04BF0120097
:10153E001950800B226E19501924286E18AEAAEF7E
:10154E000AF0ACEF0AF0ADEF0AF028802850D8B4BC
:10155E00B3EF0AF0B5EF0AF0C8EF0AF02828D8A4C6
:10156E00BBEF0AF0BDEF0AF0C5EF0AF0000E166EE3
:10157E00000E176E000E186E000E196E188ED0EF3C
:10158E000AF0000E166E000E176E000E186E000E8C
:10159E00196E1D50800B221A1D501D24236E1CAE79
:1015AE00DBEF0AF0DDEF0AF0DEEF0AF023802350C6
:1015BE00D8B4E4EF0AF0E6EF0AF0F9EF0AF02328C8
:1015CE00D8A4ECEF0AF0EEEF0AF0F6EF0AF0000EF8
:1015DE001A6E000E1B6E000E1C6E000E1D6E1C8E03
:1015EE0001EF0BF0000E1A6E000E1B6E000E1C6E3D
:1015FE00000E1D6E2350D8B407EF0BF009EF0BF061
:10160E0011EF0BF02850D8A40FEF0BF011EF0BF0E9
:10161E001BEF0BF0000E166E000E176E000E186EFE
:10162E00000E196EB3EF0CF01C501602F3CF2DF016
:10163E00F4CF2EF02D50246E256A266A276A2E507E
:10164E00296E2A6A2B6A2C6A1B501702F3CF2DF0D3
:10165E00F4CF2EF02D502426000E252226222722EE
:10166E002E502926000E2A222B222C221A50180226
:10167E00F3CF2DF0F4CF2EF02D502426000E252280
:10168E00262227222E502926000E2A222B222C22F9
:10169E0026C027F025C026F024C025F0246A1A5053
:1016AE001702F3CF2DF0F4CF2EF02D5024262E500E
:1016BE002522000E2622000E27221B501602F3CFE3
:1016CE002DF0F4CF2EF02D5024262E502522000E74
:1016DE002622000E272226C027F025C026F024C081
:1016EE0025F0246A1A501602F3CF2DF0F4CF2EF007
:1016FE002D5024262E502522000E2622000E2722A3
:10170E001C501702F3CF2DF0F4CF2EF02D502926BA
:10171E002E502A22000E2B22000E2C221B501802B5
:10172E00F3CF2DF0F4CF2EF02D5029262E502A2255
:10173E00000E2B22000E2C221C501802F3CF2DF07F
:10174E00F4CF2EF02D501E6E2E501F6E206A216A81
:10175E0020C021F01FC020F01EC01FF01E6A1E50B8
:10176E0029261F502A2220502B2221502C2224C001
:10177E001EF025C01FF026C020F027C021F0190E44
:10178E00CEEF0BF0D890213220321F321E32E82ECF
:10179E00C9EF0BF01E5029261F502A2220502B2253
:1017AE0021502C2226C027F025C026F024C025F07B
:1017BE00246A235028C01EF01F6A1E26000E1F2208
:1017CE00820E1E242D6EFF0E1F202E6E04EF0CF0C7
:1017DE00D89029362A362B362C3627AEF9EF0BF059
:1017EE00FBEF0BF0FCEF0BF02980D890243625365A
:1017FE00263627362D06D8A02E062BAE09EF0CF076
:10180E000BEF0CF0EFEF0BF0000E236E27AE12EF86
:10181E000CF014EF0CF038EF0CF0FF0E24141E6ECB
:10182E00FF0E25141F6EFF0E2614206E7F0E27143A
:10183E00216E1E501F1020102110D8B429EF0CF06D
:10184E002BEF0CF02FEF0CF0010E236E38EF0CF097
:10185E0029A034EF0CF036EF0CF038EF0CF02BEF34
:10186E000CF02350D8B43EEF0CF040EF0CF064EFC8
:10187E000CF0010E2926000E2A222B222C222CA03F
:10188E004BEF0CF04DEF0CF064EF0CF029C01EF096
:10189E002AC01FF02BC020F02CC021F021342132A1
:1018AE0020321F321E321EC029F01FC02AF020C067
:1018BE002BF021C02CF02D4A2E2A2EBE6FEF0CF0ED
:1018CE002E5008E12D28D8A06FEF0CF071EF0CF020
:1018DE007BEF0CF0000E296E000E2A6E800E2B6E22
:1018EE007F0E2C6EA9EF0CF02EBE88EF0CF02E5052
:1018FE0006E12D04D8B086EF0CF088EF0CF094EFD3
:10190E000CF0000E296E000E2A6E000E2B6E000ECD
:10191E002C6E000E226EA9EF0CF02DC028F0FF0EDB
:10192E002916FF0E2A167F0E2B16000E2C1628A037
:10193E00A3EF0CF0A5EF0CF0A6EF0CF02B8ED890C9
:10194E0028302C6E22502C1229C016F02AC017F007
:10195E002BC018F02CC019F01200D9C072F0DAC0EA
:10196E0073F0DBC074F0DCC075F060C072F061C063
:10197E0073F062C074F063C075F072C064F073C02F
:10198E0065F074C066F075C067F0180ED4EF0CF0F9
:10199E00D8906732663265326432E82ECFEF0CF0A3
:1019AE0064506C6E6D6A6DBEE6EF0CF06D5009E121
:1019BE00960E6C5CD8A0E6EF0CF0E8EF0CF0F2EFB0
:1019CE000CF060C060F061C061F062C062F063C094
:1019DE0063F08AEF0EF072C064F073C065F074C0ED
:1019EE0066F075C067F0200E02EF0DF0D8906732EA
:1019FE00663265326432E82EFDEF0CF064506510ED
:101A0E0066106710D8B40EEF0DF010EF0DF022EF48
:101A1E000DF060C002F061C003F062C004F063C05C
:101A2E0005F05AEC21F002C060F003C061F004C072
:101A3E0062F005C063F06DBE30EF0DF06D5007E142
:101A4E007E0E6C5CD8B02EEF0DF030EF0DF04CEF3B
:101A5E000DF072C016F073C017F074C018F075C098
:101A6E0019F0000E1A6E000E1B6E000E1C6E000E8C
:101A7E001D6E9FEC0AF016C060F017C061F018C022
:101A8E0062F019C063F08AEF0EF0000E4C6E000E7D
:101A9E004D6E000E4E6E4B0E4F6E60C048F061C024
:101AAE0049F062C04AF063C04BF03FEC08F048C00A
:101ABE006EF049C06FF04AC070F04BC071F0000E6E
:101ACE004C6E000E4D6E000E4E6ECB0E4F6E6EC0F7
:101ADE0048F06FC049F070C04AF071C04BF03FEC57
:101AEE0008F048C068F049C069F04AC06AF04BC0BF
:101AFE006BF068C058F069C059F06AC05AF06BC0FC
:101B0E005BF060C05CF061C05DF062C05EF063C00F
:101B1E005FF019EC21F058C076F059C077F05AC03A
:101B2E0078F05BC079F0000E026E000E036E000EB0
:101B3E00046E3F0E056E76C006F077C007F078C0D3
:101B4E0008F079C009F03CEC1AF0D8B0B1EF0DF006
:101B5E00B3EF0DF0E9EF0DF060C04CF061C04DF049
:101B6E0062C04EF063C04FF076C048F077C049F0C7
:101B7E0078C04AF079C04BF03FEC08F048C06EF0E8
:101B8E0049C06FF04AC070F04BC071F06EC048F0A3
:101B9E006FC049F070C04AF071C04BF0000E4C6E31
:101BAE00000E4D6E800E4E6EBF0E4F6E3FEC08F067
:101BBE0048C076F049C077F04AC078F04BC079F053
:101BCE0052EF0EF0000E026E000E036E000E046E4B
:101BDE00BF0E056E76C006F077C007F078C008F02D
:101BEE0079C009F03CEC1AF0D8A000EF0EF002EF2D
:101BFE000EF038EF0EF060C04CF061C04DF062C0D8
:101C0E004EF063C04FF076C048F077C049F078C010
:101C1E004AF079C04BF03FEC08F048C06EF049C076
:101C2E006FF04AC070F04BC071F06EC048F06FC0DC
:101C3E0049F070C04AF071C04BF0000E4C6E000EB1
:101C4E004D6E800E4E6E3F0E4F6E3FEC08F048C04C
:101C5E0076F049C077F04AC078F04BC079F052EF79
:101C6E000EF076C048F077C049F078C04AF079C0DF
:101C7E004BF060C04CF061C04DF062C04EF063C0DE
:101C8E004FF03FEC08F048C076F049C077F04AC0FC
:101C9E0078F04BC079F072C064F073C065F074C018
:101CAE0066F075C067F0200E62EF0EF0D8906732C6
:101CBE00663265326432E82E5DEF0EF064506510C8
:101CCE0066106710D8B46EEF0EF070EF0EF082EF64
:101CDE000EF076C002F077C003F078C004F079C041
:101CEE0005F05AEC21F002C076F003C077F004C084
:101CFE0078F005C079F076C060F077C061F078C0FA
:101D0E0062F079C063F012003250800B3F6E325099
:101D1E003224466E31AE96EF0EF098EF0EF099EF3C
:101D2E000EF046804650D8B49FEF0EF0A1EF0EF0A5
:101D3E00B6EF0EF04628D8A4A7EF0EF0A9EF0EF0DE
:101D4E00B1EF0EF0000E2F6E000E306E000E316EE3
:101D5E00000E326E318E000E326EBEEF0EF0000EA1
:101D6E002F6E000E306E000E316E000E326E36503B
:101D7E00800B3F1A36503624476E35AEC9EF0EF043
:101D8E00CBEF0EF0CCEF0EF047804750D8B4D2EF29
:101D9E000EF0D4EF0EF0E9EF0EF04728D8A4DAEFEC
:101DAE000EF0DCEF0EF0E4EF0EF0000E336E000ED0
:101DBE00346E000E356E000E366E358E000E366E9B
:101DCE00F1EF0EF0000E336E000E346E000E356E17
:101DDE00000E366E3350341035103610D8A4FAEF8C
:101DEE000EF0FCEF0EF014EF0FF0000E2F6E000E43
:101DFE00306E000E316E000E326E800E31127F0E7E
:101E0E0032123F5032122FC02FF030C030F031C09E
:101E1E0031F032C032F057EF10F04650D8A41AEF1E
:101E2E000FF01CEF0FF026EF0FF0000E2F6E000ECE
:101E3E00306E000E316E000E326E57EF10F04750BE
:101E4E0046C037F0386A375E000E385A7F0E372498
:101E5E00406E000E3820416E2FC03BF030C03CF07B
:101E6E0031C03DF032C03EF0000E2F6E000E306ECF
:101E7E00000E316E000E326E000E426E000E436E7C
:101E8E00000E446E000E456E000E476E87EF0FF08B
:101E9E004750D8B455EF0FF057EF0FF06EEF0FF02D
:101EAE00D8903B363C363D363E36D8902F363036BF
:101EBE003136323645AE66EF0FF068EF0FF069EF50
:101ECE000FF02F80D8904236433644364536335085
:101EDE003B5C34503C5835503D5836503E58D8A097
:101EEE007BEF0FF07DEF0FF086EF0FF0458C335048
:101EFE003B5E34503C5A35503D5A36503E5A472A76
:101F0E00190E47648DEF0FF08FEF0FF04FEF0FF0BC
:101F1E003B503C103D103E10D8B498EF0FF09AEFA6
:101F2E000FF0B2EF0FF04280B2EF0FF0D8902F36D5
:101F3E0030363136323645AEA7EF0FF0A9EF0FF03F
:101F4E00AAEF0FF02F80D8904236433644364536EE
:101F5E004006D8A0410631AEB7EF0FF0B9EF0FF043
:101F6E009DEF0FF0000E476E45AEC0EF0FF0C2EFC3
:101F7E000FF0E6EF0FF0FF0E4214376EFF0E431414
:101F8E00386EFF0E4414396E7F0E45143A6E37507C
:101F9E00381039103A10D8B4D7EF0FF0D9EF0FF040
:101FAE00DDEF0FF0010E476EE6EF0FF02FA0E2EF20
:101FBE000FF0E4EF0FF0E6EF0FF0D9EF0FF0475010
:101FCE00D8B4ECEF0FF0EEEF0FF012EF10F0010EB1
:101FDE002F26000E30223122322232A0F9EF0FF0DE
:101FEE00FBEF0FF012EF10F02FC037F030C038F0CB
:101FFE0031C039F032C03AF03A343A3239323832EE
:10200E00373237C02FF038C030F039C031F03AC017
:10201E0032F0404A412A41BE1DEF10F0415008E116
:10202E004028D8A01DEF10F01FEF10F02AEF10F08F
:10203E00000E416E4068000E2F6E000E306E000EC8
:10204E00316E000E326E41BE37EF10F0415006E198
:10205E004004D8B035EF10F037EF10F045EF10F028
:10206E00000E416E000E406E000E2F6E000E306E92
:10207E00000E316E000E326E000E3F6E40C046F006
:10208E0046A04CEF10F04EEF10F051EF10F0318EE5
:10209E0052EF10F0319ED8904630326E08EF0FF0AE
:1020AE001200000E0101936F000E946F000E926FDE
:1020BE003CEC21F041EC1EF0000E0001E86F000E2A
:1020CE00E76F010E0101946F000E926F32EC1BF060
:1020DE0001019569A8EF10F0680E0C6E010E0D6EE1
:1020EE00930E0E6E010E0F6EBCEC13F0020E00017D
:1020FE00BB6F040EBA6FBA0EE82EFED7BA2FFCD7FE
:10210E00BB2FFAD700F0680E0C6E010E0D6E950EF9
:10211E000E6E010E0F6EBCEC13F00101935195196A
:10212E00D8B49CEF10F09EEF10F0A3EF10F0000E5D
:10213E008A6F8969A6EF10F095C189F18A6B89C102
:10214E0095F19529D8B4AEEF10F0B0EF10F073EF13
:10215E0010F0050E9561B6EF10F0B8EF10F073EFBA
:10216E0010F09551D8B4BEEF10F0C0EF10F073EF31
:10217E0010F095C191F1BEEC1AF001019569AAEF2C
:10218E0011F09569680E0C6E010E0D6E930E0E6EAB
:10219E00010E0F6EBCEC13F0020E0001BB6F040EAD
:1021AE00BA6FBA0EE82EFED7BA2FFCD7BB2FFAD7CE
:1021BE0000F0680E0C6E010E0D6E950E0E6E010E79
:1021CE000F6EBCEC13F0010193519519D8B4F2EFD8
:1021DE0010F0F4EF10F0F9EF10F0000E8C6F8B6929
:1021EE00FCEF10F095C18BF18C6B8BC195F10A0E43
:1021FE00956104EF11F006EF11F035EF11F0030EBB
:10220E0092610CEF11F00EEF11F035EF11F0E7C007
:10221E0002F0E8C003F0000E056E0A0E046ED1EC5B
:10222E0021F00101955102240001E76F0101000E1A
:10223E0003200001E86FD30E1E6E000E1F6E01010B
:10224E009551300F206E040E216E94C122F0F6ECE3
:10225E0020F00101942B922BAAEF11F0630E951929
:10226E00D8A43CEF11F03EEF11F0AAEF11F0000EE2
:10227E00336E000E346E200E356E410E366EE7C094
:10228E0008F0E8C009F00A6A0B6A000EE2EC12F0E0
:10229E0008C02FF009C030F00AC031F00BC032F088
:1022AE008BEC0EF02FC080F030C081F031C082F088
:1022BE0032C083F036EC19F080C0E7F081C0E8F050
:1022CE00010E010194656EEF11F070EF11F078EFD1
:1022DE0011F0FF0E94258D6F8E6BFF0E8E237CEF0B
:1022EE0011F0000E8E6F010E8D6F8DC194F1925113
:1022FE00D8B484EF11F086EF11F08EEF11F0FF0ECF
:10230E0092258F6F906BFF0E902392EF11F0000EBF
:10231E00906F000E8F6F8FC192F1D30E1E6E000E56
:10232E001F6E200E206E040E216E94C122F0F6EC6C
:10233E0020F0D30E1E6E000E1F6E040E206E94C182
:10234E0021F0F3EC21F03D0E01019519D8A4B2EF66
:10235E0011F0B4EF11F0C8EF10F0E7C0B8F0E8C01C
:10236E00B9F09151A6EC21F063EF10F013EF00F0ED
:10237E0000019A6F000E0001976F000E996F000E0C
:10238E00986F000E9C6F000E9B6F100E9A61D2EF2D
:10239E0011F0D4EF11F0DFEF12F08BBFD9EF11F087
:1023AE00DBEF11F0DFEF12F0000E026E000E036E87
:1023BE00C80E046E420E056E88C006F089C007F086
:1023CE008AC008F08BC009F03CEC1AF0D8A0F2EFEE
:1023DE0011F0F4EF11F0DFEF12F0650E00018C61D9
:1023EE00FBEF11F0FDEF11F0DFEF12F08C51D8A4DE
:1023FE0003EF12F005EF12F00BEF12F0000E9E6FCE
:10240E00000E9D6F64EF12F0000E4C6E000E4D6EBE
:10241E00800E4E6EBF0E4F6E000E336E000E346E7B
:10242E00C80E356E420E366E8CC002F0036A100E68
:10243E00056E000E046ED1EC21F002C008F003C050
:10244E0009F0000E09BEFF0E0A6E0B6E010EE2ECD5
:10245E0012F008C02FF009C030F00AC031F00BC0E6
:10246E0032F08BEC0EF02FC048F030C049F031C086
:10247E004AF032C04BF03FEC08F048C08FF049C034
:10248E0090F04AC091F04BC092F08FC060F090C0B7
:10249E0061F091C062F092C063F0B4EC0CF060C0D9
:1024AE0080F061C081F062C082F063C083F036ECD0
:1024BE0019F080C09DF081C09EF0000E336E000EAC
:1024CE00346EC80E356E420E366E000E1A6E000E4B
:1024DE001B6E800E1C6E450E1D6E88C016F089C0D8
:1024EE0017F08AC018F08BC019F09FEC0AF016C0D6
:1024FE002FF017C030F018C031F019C032F08BEC4D
:10250E000EF02FC093F030C094F031C095F032C071
:10251E0096F093C060F094C061F095C062F096C0E2
:10252E0063F0B4EC0CF060C080F061C081F062C06A
:10253E0082F063C083F036EC19F080C09BF081C04E
:10254E009CF000019B519D258D6F9C519E218E6F9D
:10255E008D05100E8E59D8A0B7EF12F0B9EF12F00C
:10256E00C7EF12F09B519D258D6F9C519E218E6F52
:10257E00000E8D25986FF00E8E21996FCDEF12F013
:10258E009B519D25986F9C519E21996FFF0E9D1515
:10259E00066E0F0E9E15076EFF0E9815086E0F0E27
:1025AE009915096E9A5159EC1FF0010E0001976FA3
:1025BE00000197511200106E1050D8B4E9EF12F0CE
:1025CE00EBEF12F00DEF13F00BBEF2EF12F0F0EF97
:1025DE0012F00DEF13F008C00CF009C00DF00AC098
:1025EE000EF00BC00FF00C1E0D1E0E1E0F1E0C2A31
:1025FE00000E0D220E220F220CC012F00DC013F091
:10260E000EC014F00FC015F015EF13F008C012F045
:10261E0009C013F00AC014F00BC015F008500910D1
:10262E000A100B10D8A41EEF13F020EF13F02AEFB0
:10263E0013F0000E086E000E096E000E0A6E000EEC
:10264E000B6EBBEF13F0960E116E34EF13F0112AD2
:10265E00D8901532143213321232000E12140C6E40
:10266E00000E13140D6E000E14140E6EFE0E1514C5
:10267E000F6E0C500D100E100F10D8A449EF13F062
:10268E004BEF13F02EEF13F059EF13F0112A010E4A
:10269E001226000E132214221522D890153214324F
:1026AE0013321232000E12140C6E000E13140D6E35
:1026BE00000E14140E6EFF0E15140F6E0C500D102E
:1026CE000E100F10D8A46EEF13F070EF13F04DEF45
:1026DE0013F078EF13F01106D89012361336143625
:1026EE00153614BE7DEF13F07FEF13F087EF13F066
:1026FE00020E116085EF13F087EF13F072EF13F0F7
:10270E0011B08CEF13F08EEF13F08FEF13F0149EC9
:10271E00D890113211C00CF00D6A0E6A0F6A0CC0FF
:10272E000FF00E6A0D6A0C6A0C5012120D50131235
:10273E000E5014120F5015121050D8B4A9EF13F0FA
:10274E00ABEF13F0B3EF13F00BBEB2EF13F0B0EF2D
:10275E0013F0B3EF13F0158E12C008F013C009F08A
:10276E0014C00AF015C00BF01200010E186E000E08
:10277E00146E000E156E000E166E000E176E000E05
:10278E00196E0C500D10D8B4CFEF13F0D1EF13F02B
:10279E00DAEF13F00E500F10D8A4D8EF13F0DAEFD3
:1027AE0013F0DEEF13F0000E186E8AEF14F0000E29
:1027BE001A6E000E1B6E000E1C6E000E1D6E75EF57
:1027CE0014F01A500C24026E1B500D20036E010ED5
:1027DE00046E5DEC17F0000E146E000E156E000EFA
:1027EE00166E000E176E49EF14F014500C24106E76
:1027FE0015500D20116E040E1024026E000E1120C5
:10280E00036E190E046E000E056EA6EC1BF0190475
:10281E00D8A414EF14F016EF14F043EF14F01AC00E
:10282E0010F01BC011F0D89010361136D89010361B
:10283E001136010E1024126E100E1120136E14504C
:10284E0012261550132212C0F6FF13C0F7FFF86AB6
:10285E000EC0D9FF0FC0DAFF0800F5CFDFFF1A5008
:10286E000C24026E1B500D20036E000E046E5DECE8
:10287E0017F0010E8BEF14F0010E1426000E152228
:10288E001622172217501610151007E1040E145CAD
:10289E00D8B054EF14F056EF14F05EEF14F0195058
:1028AE00D8B45CEF14F05EEF14F0FCEF13F00EC032
:1028BE00D9FF0FC0DAFFFF0EDF6E1A500C24026E26
:1028CE001B500D20036E000E046E5DEC17F0186E9B
:1028DE00010E1A26000E1B221C221D221D501C103A
:1028EE001B1007E1040E1A5CD8B080EF14F082EFD3
:1028FE0014F08AEF14F01950D8B488EF14F08AEF60
:10290E0014F0E8EF13F01850120002C00CF003C0E0
:10291E000DF006500710D8A497EF14F099EF14F0AD
:10292E009BEF14F046EF15F00CC0D9FF0DC0DAFF87
:10293E0004C0DFFF06500C24086E07500D20096EF0
:10294E00FF0E0824D96EFF0E0920DA6E04C0DFFFD9
:10295E00075007E1030E065CD8B0B8EF14F0BAEFDB
:10296E0014F0BCEF14F046EF15F020EE01F00C5011
:10297E00D9260D50DA2204C0DFFF20EE02F00C50F3
:10298E00D9260D50DA2204C0DFFF06500C24086E43
:10299E0007500D20096EFE0E0824D96EFF0E092079
:1029AE00DA6E04C0DFFF06500C24086E07500D20AF
:1029BE00096EFD0E0824D96EFF0E0920DA6E04C0D2
:1029CE00DFFF075007E1070E065CD8B0F1EF14F0F9
:1029DE00F3EF14F0F5EF14F046EF15F020EE03F0E0
:1029EE000C50D9260D50DA2204C0DFFF06500C24FD
:1029FE00086E07500D20096EFC0E0824D96EFF0ECE
:102A0E000920DA6E04C0DFFF075007E1090E065CED
:102A1E00D8B014EF15F016EF15F018EF15F046EFCD
:102A2E0015F00CC008F00DC009F0081E091E084A6A
:102A3E00092A030E08140A6E0B6A0A500C260B5054
:102A4E000D220A50065E0B50075AFC0E0616FF0E9C
:102A5E0007163DEF15F00CC0D9FF0DC0DAFF04C00C
:102A6E00DFFF0606D8A007060C4A0D2A06500710EF
:102A7E00D8A444EF15F046EF15F032EF15F0120022
:102A8E00000E00018E6F010E8F6F8D5109E1180E31
:102A9E008C5DD8A055EF15F057EF15F0FAEF15F045
:102AAE00F70E8C5D050E8D59D8B060EF15F062EF04
:102ABE0015F0FAEF15F08CC0F2F08DC0F3F08EEC3D
:102ACE0021F000018E6F8F0E026E000E036E000E4F
:102ADE00D4EC1EF000018E178F0E026E000E036EE8
:102AEE00060ED4EC1EF000018E1776EC21F00001DC
:102AFE008E1736EC1DF00001F16F8EEC21F0000107
:102B0E008E178F0E026E000E036E800ED4EC1EF02A
:102B1E0000018E178F0E026E000E036E000ED4ECA7
:102B2E001EF000018E178F0E026E000E036E100E39
:102B3E00D4EC1EF000018E1776EC21F000018E17FA
:102B4E00DC0E00D0E82EFDD78EEC21F000018E17A2
:102B5E008F0E026E000E036E800ED4EC1EF000017E
:102B6E008E178F0E026E000E036EFE0ED4EC1EF04C
:102B7E0000018E178F0E026E000E036EF151D4EC13
:102B8E001EF000018E1776EC21F000018E178EECF0
:102B9E0021F000018E178F0E026E000E036E800E56
:102BAE00D4EC1EF000018E178F0E026E000E036E17
:102BBE00000ED4EC1EF000018E178F0E026E000E6A
:102BCE00036E200ED4EC1EF000018E178F0E026ED7
:102BDE00000E036E040ED4EC1EF000018E1776EC80
:102BEE0021F000018E178E511200010E0A6E025056
:102BFE000310D8B405EF16F007EF16F027EF16F016
:102C0E0002C0D9FF03C0DAFFDF50070B046E050EBA
:102C1E00046014EF16F016EF16F027EF16F002C050
:102C2E00D9FF03C0DAFFDF30E832E832070B046E5B
:102C3E00070E046425EF16F027EF16F08AEF16F054
:102C4E00000E0A6EABEF16F002C0D9FF03C0DAFF1A
:102C5E00DF30E832E832070B046E010E056E042AEF
:102C6E003BEF16F0D8900536042E39EF16F00550CE
:102C7E00FF0A066E02C0D9FF03C0DAFFDF50070B52
:102C8E00076E0750020DBC0EF324D96E000EF42011
:102C9E00DA6EDECF08F0DDCF09F008C0D9FF09C02B
:102CAE00DAFF0650DF16ABEF16F002C0D9FF03C0F5
:102CBE00DAFFDF30E832E832070B046E010E056EE4
:102CCE00042A6CEF16F0D8900536042E6AEF16F033
:102CDE0002C0D9FF03C0DAFFDF50070B066E0650A5
:102CEE00020DBC0EF324D96E000EF420DA6EDECF88
:102CFE0007F0DDCF08F007C0D9FF08C0DAFF055096
:102D0E00DF12ABEF16F002C0D9FF03C0DAFFDFBC53
:102D1E0093EF16F096EF16F0010E97EF16F0000EE9
:102D2E00046E056A0550000AD8B4A0EF16F027EF1E
:102D3E0016F00450000AD8B42BEF16F0010AD8B4DE
:102D4E005CEF16F027EF16F00A5012000001A76F85
:102D5E00000E0001AC6F000EA86F000EA96F000EE2
:102D6E00AA6F000EAB6F100EA761C0EF16F0C2EF88
:102D7E0016F05BEF17F0F2C008F0F3C009F00A6A24
:102D8E000B6A000EE2EC12F008C033F009C034F00A
:102D9E000AC035F00BC036F0000E2F6E000E306EEE
:102DAE00800E316E3F0E326E8BEC0EF02FC016F091
:102DBE0030C017F031C018F032C019F0000E1A6E84
:102DCE00240E1B6E740E1C6E490E1D6E9FEC0AF0C7
:102DDE0016C0A8F017C0A9F018C0AAF019C0ABF021
:102DEE00A8C080F0A9C081F0AAC082F0ABC083F069
:102DFE0036EC19F000019F51805DA0518159A1510F
:102E0E008259A2518359D8B00FEF17F011EF17F076
:102E1E0014EF17F0000E5CEF17F0A8C033F0A9C046
:102E2E0034F0AAC035F0ABC036F09FC008F0A0C099
:102E3E0009F0A1C00AF0A2C00BF0000EE2EC12F0F5
:102E4E0008C02FF009C030F00AC031F00BC032F0CC
:102E5E008BEC0EF02FC016F030C017F031C018F00A
:102E6E0032C019F0000E1A6E000E1B6EC80E1C6ECC
:102E7E00420E1D6E9FEC0AF016C0A3F017C0A4F010
:102E8E0018C0A5F019C0A6F0A3C088F0A4C089F0A0
:102E9E00A5C08AF0A6C08BF0000E00018C6FA75162
:102EAE00BFEC11F00001AC6FAC511200010E0B6EB5
:102EBE0002500310D8B466EF17F068EF17F088EFE2
:102ECE0017F002C0D9FF03C0DAFFDF50070B056E03
:102EDE00050E056075EF17F077EF17F088EF17F016
:102EEE0002C0D9FF03C0DAFFDF30E832E832070B49
:102EFE00056E070E056486EF17F088EF17F0EBEFFF
:102F0E0017F0000E0B6E00EF18F002C0D9FF03C0D1
:102F1E00DAFFDF30E832E832070B056E010E066E7F
:102F2E00052A9CEF17F0D8900636052E9AEF17F06B
:102F3E000650FF0A076E02C0D9FF03C0DAFFDF504A
:102F4E00070B086E0850020DC60EF324D96E000E44
:102F5E00F420DA6EDECF09F0DDCF0AF009C0D9FF1A
:102F6E000AC0DAFF0750DF1600EF18F002C0D9FFD3
:102F7E0003C0DAFFDF30E832E832070B056E010ED0
:102F8E00066E052ACDEF17F0D8900636052ECBEF3C
:102F9E0017F002C0D9FF03C0DAFFDF50070B076E30
:102FAE000750020DC60EF324D96E000EF420DA6E11
:102FBE00DECF08F0DDCF09F008C0D9FF09C0DAFF77
:102FCE000650DF1200EF18F00450056E066A065028
:102FDE00000AD8B4F5EF17F088EF17F00550000A85
:102FEE00D8B48CEF17F0010AD8B4BDEF17F088EF04
:102FFE0017F00B50120000018A518B11D8B40AEF52
:10300E0018F00CEF18F0A2EF18F0C69A8AC0D9FF8C
:10301E008BC0DAFF080EDE18D8A418EF18F01AEFDE
:10302E0018F022EF18F08AC088F08BC089F076EC89
:10303E001CF05CEF18F08AC0D9FF8BC0DAFF060EC9
:10304E00DE18D8B42DEF18F02FEF18F056EF18F059
:10305E008AC0D9FF8BC0DAFF070EDE18D8B43AEF5C
:10306E0018F03CEF18F056EF18F08AC0D9FF8BC05D
:10307E00DAFF0E0EDE18D8B447EF18F049EF18F04D
:10308E0056EF18F08AC0D9FF8BC0DAFF0F0EDE188C
:10309E00D8A454EF18F056EF18F05CEF18F08AC071
:1030AE0002F08BC003F0F0EC1DF000EC22F00001FA
:1030BE0020EE01F08A51D9268B51DA22DFB06AEF69
:1030CE0018F06CEF18F06FEF18F0C78E7DEF18F058
:1030DE0020EE01F08A51D9268B51DA22DFA07AEF49
:1030EE0018F07CEF18F07DEF18F0C79E20EE01F07F
:1030FE008A51D9268B51DA22DFA288EF18F08AEF97
:10310E0018F08DEF18F0C78C9BEF18F020EE01F041
:10311E008A51D9268B51DA22DFB298EF18F09AEF46
:10312E0018F09BEF18F0C79CC69EC69CC68A010E6F
:10313E008D6FA4EF18F0000E8D6F8D511200000EE2
:10314E001A6E17501810D8A4AFEF18F0B1EF18F090
:10315E00B5EF18F0000E1B6E34EF19F0040E1724A5
:10316E000C6E000E18200D6E8FEC1EF01B6E050EF1
:10317E0017240C6E000E18200D6E8FEC1EF01B6EB9
:10318E00000E1A6E1A5017240C6E000E18200D6EBB
:10319E008FEC1EF01A2A030E1A64D8EF18F0DAEF2D
:1031AE0018F0C9EF18F0340E196EF20EE82EFED795
:1031BE00192EFCD717C013F018C014F0380E156E68
:1031CE0096EC1FF00D0E196EFC0EE82EFED7192E82
:1031DE00FCD717C013F018C014F0380E156E96EC0D
:1031EE001FF0640EE82EFED717C013F018C014F0AF
:1031FE00380E156E96EC1FF017C013F018C014F0B1
:10320E00010E156E96EC1FF017C013F018C014F0D7
:10321E00020E156E96EC1FF017C013F018C014F0C6
:10322E00280E156E96EC1FF017C013F018C014F090
:10323E00060E156E96EC1FF017C013F018C014F0A2
:10324E000C0E156E96EC1FF017C013F018C014F08C
:10325E00800E156E96EC1FF01B6E1B5012000001B7
:10326E00823583357B6E7B50D8A440EF19F042EF48
:10327E0019F04CEF19F0000E806F000E816F000EEA
:10328E00826F000E836FB9EF19F080C084F081C099
:10329E0085F082C086F083C087F0200E5CEF19F0B7
:1032AE00D8908733863385338433E82E57EF19F061
:1032BE0084517A6E828FFF0E8017FF0E8117FF0EDC
:1032CE008217000E8317960E7B5E7BBE73EF19F08E
:1032DE0071EF19F089EF19F07B50800A970FD8B073
:1032EE007BEF19F07DEF19F07FEF19F042EF19F037
:1032FE00D89083338233813380337B3E7FEF19F056
:10330E00A1EF19F01F0E7B648FEF19F091EF19F0FA
:10331E0099EF19F042EF19F0D89080378137823744
:10332E0083377B067B50D8A49FEF19F0A1EF19F0DD
:10333E0093EF19F07A50D8B4A7EF19F0A9EF19F05E
:10334E00B1EF19F0831F821F811F806D000E812344
:10335E008223832380C080F081C081F082C082F0FE
:10336E0083C083F01200000E0C6E000E0D6E000E68
:10337E000E6E000E0F6E000E106E000E116E000E11
:10338E00126E000E136E02500310D8B4D1EF19F066
:10339E00D3EF19F03BEF1AF006500710D8B4DAEF5E
:1033AE0019F0DCEF19F03BEF1AF004500510D8B409
:1033BE00E3EF19F0E5EF19F03BEF1AF007EF1AF013
:1033CE0010500624086E11500720096E08C0F6FF33
:1033DE0009C0F7FFF86A10500224D96E115003206D
:1033EE00DA6E0800F5CFDFFF010E0C26000E0D225F
:1033FE000E220F22010E1026000E1122122213226F
:10340E00FF0E0424086EFF0E0520096E0A6A0B6A71
:10341E000850105C095011580A5012580B5013588E
:10342E00D8B01CEF1AF01EEF1AF033EF1AF010504E
:10343E000624086E11500720096E08C0F6FF09C059
:10344E00F7FFF86A0800F5500009D8A431EF1AF01A
:10345E0033EF1AF0E7EF19F010500224D96E115025
:10346E000320DA6E000EDF6E1200000E02140A6EDA
:10347E00000E03140B6E800E04140C6E7F0E0514DA
:10348E000D6E0A500B100C100D10D8A451EF1AF03F
:10349E0053EF1AF05BEF1AF0000E026E000E036E81
:1034AE00000E046E000E056E000E06140A6E000E5F
:1034BE0007140B6E800E08140C6E7F0E09140D6E21
:1034CE000A500B100C100D10D8A470EF1AF072EFFA
:1034DE001AF07AEF1AF0000E066E000E076E000E4E
:1034EE00086E000E096E05AE7FEF1AF081EF1AF02E
:1034FE008AEF1AF0026C031ED8B0032A041ED8B04D
:10350E00042A800E055609AE8FEF1AF091EF1AF0CD
:10351E009AEF1AF0066C071ED8B0072A081ED8B00C
:10352E00082A800E0956000E021A000E031A000E0B
:10353E00041A800E051A000E061A000E071A000E47
:10354E00081A800E091A0650025C075003580850DC
:10355E00045809500558D8B0B7EF1AF0B9EF1AF061
:10356E00BCEF1AF0D890BDEF1AF0D880120021EE01
:10357E0015F010EE26F0140EDBCFE3FFE806FCE2AA
:10358E00D30E136E000E146E010E156E96EC1FF018
:10359E00D30E1E6E000E1F6E260E206E000E216EB6
:1035AE00010E226E010E236E17EC1FF0260E026E18
:1035BE00000E036E000E056E000E046E000E076EFA
:1035CE00150E066E8CEC14F0260E026E000E036EB7
:1035DE00000E056E150E046E620E066E100E076E50
:1035EE00BAEC19F0D30E1E6E000E1F6E260E206E54
:1035FE00000E216E020E226E010E236E17EC1FF0CE
:10360E00260E026E000E036E000E056E000E046E88
:10361E00000E076E150E066E8CEC14F0260E026E62
:10362E00000E036E000E056E150E046E500E066E25
:10363E00100E076EBAEC19F0D30E1E6E000E1F6E32
:10364E00260E206E000E216E030E226E010E236ECC
:10365E0017EC1FF0120021EE2AF010EE26F0140ED9
:10366E00DBCFE3FFE806FCE2D30E136E000E146E02
:10367E00010E156E96EC1FF0D30E1E6E000E1F6E11
:10368E00260E206E000E216E010E226E010E236E8E
:10369E0017EC1FF0260E026E000E036E000E056E66
:1036AE00000E046E000E076E150E066E8CEC14F0F6
:1036BE00260E026E000E036E000E056E150E046EC3
:1036CE002A0E066E100E076EBAEC19F0D30E1E6E91
:1036DE00000E1F6E260E206E000E216E020E226E42
:1036EE00010E236E17EC1FF0260E026E000E036EF7
:1036FE00000E056E000E046E000E076E150E066EA1
:10370E008CEC14F0260E026E000E036E000E056E8B
:10371E00150E046E3D0E066E100E076EBAEC19F005
:10372E00D30E1E6E000E1F6E260E206E000E216E24
:10373E00030E226E010E236E17EC1FF01200000E08
:10374E000B6E02500310D8B4AFEF1BF0B1EF1BF0AD
:10375E00DAEF1BF004500510D8B4B8EF1BF0BAEF37
:10376E001BF0DAEF1BF002C0D9FF03C0DAFFDF5007
:10377E00070B066E050E0660C7EF1BF0C9EF1BF0B8
:10378E00DAEF1BF002C0D9FF03C0DAFFDF30E832F8
:10379E00E832070B066E070E0664D8EF1BF0DAEF61
:1037AE001BF0DEEF1BF0010E0B6E0FEF1CF002C0D4
:1037BE00D9FF03C0DAFFDF30E832E832070B066EBE
:1037CE0002C0D9FF03C0DAFFDF50070B076E0750A8
:1037DE00020D5E0EF324D96E010EF420DA6EDECFEA
:1037EE0008F0DDCF09F008C0D9FF09C0DAFFDF50BD
:1037FE000A6E062A05EF1CF0D8900A32062E03EF49
:10380E001CF00A50010B04C0D9FF05C0DAFFDF6EB1
:10381E000B5012000001B76F000E0001B66F000EC4
:10382E00B26F000EB36F000EB46F000EB56F100EB8
:10383E00B76124EF1CF026EF1CF074EF1CF0B50EF0
:10384E00AD612CEF1CF02EEF1CF074EF1CF01C0E73
:10385E00AE6FC70EAF6FB10EB06F400EB16FAEC090
:10386E001AF0AFC01BF0B0C01CF0B1C01DF0AD51CE
:10387E00086E096A0A6A0B6A010EE2EC12F008C0C1
:10388E0016F009C017F00AC018F00BC019F09FEC23
:10389E000AF016C080F017C081F018C082F019C06F
:1038AE0083F036EC19F080C0B2F081C0B3F082C064
:1038BE00B4F083C0B5F0E80E0001B2259F6F030E81
:1038CE00B321A06F000EB421A16F000EB521A26F1F
:1038DE00B751ADEC16F00001B66FB6511200000EE6
:1038EE004C6E000E4D6E800E4E6EBF0E4F6E000E65
:1038FE001A6E000E1B6E800E1C6E400E1D6E0001A9
:10390E0020EE02F08851D9268951DA22DECF08F056
:10391E00DECF09F0DECF0AF0DECF0BF0000EE2ECC8
:10392E0012F008C016F009C017F00AC018F00BC04C
:10393E0019F09FEC0AF016C033F017C034F018C01F
:10394E0035F019C036F0000E2F6E240E306EF40EC8
:10395E00316E4A0E326E8BEC0EF02FC048F030C036
:10396E0049F031C04AF032C04BF03FEC08F048C08D
:10397E0080F049C081F04AC082F04BC083F036EC33
:10398E0019F000018051C86E88C0D9FF89C0DAFFD6
:10399E00DF507C6EC6507C18F00B7C18C66E120081
:1039AE0017501810D8A4DEEF1CF0E0EF1CF0E4EF77
:1039BE001CF0000E1D6E34EF1DF01A0617EF1DF0F1
:1039CE0017C013F018C014F01A50800F156E96EC35
:1039DE001FF01D6E34EF1DF017C013F018C014F059
:1039EE001A50C00F156E96EC1FF01D6E34EF1DF0C1
:1039FE0017C013F018C014F01A50940F156E96ECF1
:103A0E001FF01D6E34EF1DF017C013F018C014F028
:103A1E001A50D40F156E96EC1FF01D6E34EF1DF07C
:103A2E0019501B6E1C6A1C50000AD8B421EF1DF0F1
:103A3E00E0EF1CF01B50010AD8B4E7EF1CF0030AAC
:103A4E00D8B4F3EF1CF0010AD8B4FFEF1CF0070A4C
:103A5E00D8B40BEF1DF0E0EF1CF01D501200000E5D
:103A6E004C6E000E4D6E800E4E6EBF0E4F6E000EE3
:103A7E001A6E000E1B6E800E1C6E450E1D6EF2C071
:103A8E0008F0F3C009F00A6A0B6A000EE2EC12F0BD
:103A9E0008C016F009C017F00AC018F00BC019F0D4
:103AAE009FEC0AF016C033F017C034F018C035F092
:103ABE0019C036F0200E2F6EBC0E306EBE0E316E5B
:103ACE004B0E326E8BEC0EF02FC048F030C049F02A
:103ADE0031C04AF032C04BF03FEC08F048C088F0DD
:103AEE0049C089F04AC08AF04BC08BF088C060F0A4
:103AFE0089C061F08AC062F08BC063F0B4EC0CF048
:103B0E0060C080F061C081F062C082F063C083F05B
:103B1E0036EC19F0000180511200000E156E000EE9
:103B2E00166E000E176E000E186E10501110D8A4DF
:103B3E00A3EF1DF0A5EF1DF0A9EF1DF0000E146E02
:103B4E00EEEF1DF0155010240C6E165011200D6E58
:103B5E008FEC1EF0010E1526000E162217221822CB
:103B6E0018501710161009E1040E155CD8A0C2EFFC
:103B7E001DF0C4EF1DF0A9EF1DF0000E156E000E26
:103B8E00166E000E176E000E186E15501024126E63
:103B9E0016501120136E040E12240C6E000E1320FC
:103BAE000D6E8FEC1EF0146E010E1526000E1622F1
:103BBE001722182218501710161009E1040E155C62
:103BCE00D8A0ECEF1DF0EEEF1DF0CCEF1DF0145071
:103BDE00120002C0D9FF03C0DAFFDF50046EC650D8
:103BEE000418F00B0418C66E20EE01F00250D92610
:103BFE000350DA22DFA406EF1EF008EF1EF00BEFE3
:103C0E001EF0C58E19EF1EF020EE01F00250D926DF
:103C1E000350DA22DFB416EF1EF018EF1EF019EF84
:103C2E001EF0C59E20EE01F00250D9260350DA2276
:103C3E00DFA624EF1EF026EF1EF029EF1EF0C58042
:103C4E0037EF1EF020EE01F00250D9260350DA2293
:103C5E00DFB634EF1EF036EF1EF037EF1EF0C590D4
:103C6E00C68820EE02F00250D9260350DA22DF5029
:103C7E00C86E120021EE3FF010EE28F0140EDBCFCE
:103C8E00E3FFE806FCE2D30E1E6E000E1F6E280E3A
:103C9E00206E000E216E010E226E070E236E17ECA3
:103CAE001FF0280E026E000E036E000E056E000E43
:103CBE00046E000E076E150E066E8CEC14F0280EB8
:103CCE00026E000E036E000E056E150E046E150EBE
:103CDE00066E100E076EBAEC19F0D30E1E6E000EA5
:103CEE001F6E280E206E000E216E020E226E010E29
:103CFE00236E17EC1FF0150E276E4B0E266EBE0EA2
:103D0E00E82EFED7262EFCD7272EFAD700D012008B
:103D1E000C500D10D8B496EF1EF098EF1EF0B8EFC1
:103D2E001EF00CC0D9FF0DC0DAFFDF50070B0E6E70
:103D3E00050E0E60A5EF1EF0A7EF1EF0B8EF1EF0F9
:103D4E000CC0D9FF0DC0DAFFDF30E832E832070BC6
:103D5E000E6E070E0E64B6EF1EF0B8EF1EF0BCEF3F
:103D6E001EF0000E0F6ED2EF1EF00CC002F00DC052
:103D7E0003F0FCEC15F00F6E0CC002F00DC003F05A
:103D8E000CC0D9FF0DC0DAFF000EDFBE010E046EAF
:103D9E005DEC17F00F6E0F501200046E0250031000
:103DAE00D8B4DCEF1EF0DEEF1EF013EF1FF0C7B03D
:103DBE00E3EF1EF0E5EF1EF013EF1FF004C0C9FF96
:103DCE00C6AEECEF1EF0EEEF1EF0F9EF1EF0C69E43
:103DDE00000E056E02C0D9FF03C0DAFF010EDF6EC2
:103DEE0015EF1FF09EA6FEEF1EF000EF1FF0F9EF8D
:103DFE001EF09E96C5BC06EF1FF009EF1FF0010ED8
:103E0E000AEF1FF0000E02C0D9FF03C0DAFFDF6E0B
:103E1E00010E056E15EF1FF0000E056E0550120017
:103E2E00000E246E1E501F10D8B420EF1FF022EF8C
:103E3E001FF02BEF1FF020502110D8A429EF1FF0F8
:103E4E002BEF1FF02FEF1FF0000E256E57EF1FF018
:103E5E001EC017F01FC018F022C019F023C01AF0B0
:103E6E00D7EC1CF0256E4BEF1FF01EC013F01FC0D9
:103E7E0014F020C0D9FF21C0DAFFDF50156ED1EC4F
:103E8E001FF0256E204A212A20C0D9FF21C0DAFF5B
:103E9E00DF50D8A455EF1FF057EF1FF03CEF1FF087
:103EAE00255012000A6E010E0C6E8EEC21F00B6E78
:103EBE000C0E026E000E036E800ED4EC1EF00B166E
:103ECE000C0E026E000E036E0A50040DF350060F18
:103EDE00D4EC1EF00B160C0E026E000E036E065086
:103EEE00D4EC1EF00B160C0E026E000E036E075075
:103EFE00D4EC1EF00B160C0E026E000E036E085064
:103F0E00D4EC1EF00B160C0E026E000E036E095052
:103F1E00D4EC1EF00B1676EC21F00B16120013509B
:103F2E001410D8A49DEF1FF09FEF1FF0A3EF1FF00A
:103F3E00000E166ECFEF1FF0040E1324026E000E4D
:103F4E001420036E000E046E5DEC17F0166E13C097
:103F5E000CF014C00DF015380F0B0E6ED1EC20F0D6
:103F6E00166E13C00CF014C00DF0A9EC20F0166EF6
:103F7E0013C00CF014C00DF015C00EF0D1EC20F0F3
:103F8E00166E13C00CF014C00DF0A9EC20F0166ED6
:103F9E001650120013501410D8A4D8EF1FF0DAEFF9
:103FAE001FF0DEEF1FF0000E166E0AEF20F0040E6B
:103FBE001324026E000E1420036E010E046E5DECCF
:103FCE0017F0166E13C00CF014C00DF015380F0B51
:103FDE000E6ED1EC20F0166E13C00CF014C00DF066
:103FEE00A9EC20F0166E13C00CF014C00DF015C025
:103FFE000EF0D1EC20F0166E13C00CF014C00DF0C4
:10400E00A9EC20F0166E165012008C0EF66E400EB5
:10401E00F76E000EF86E01EE00F010EE70F0090073
:10402E00F5CFEEFFE550E150FAE1C80EF66E430E05
:10403E00F76E000EF86E00EEBCF010EE1DF00900EB
:10404E00F5CFEEFFE550E150FAE10C0EF66E440EA0
:10405E00F76E000EF86E0900F5CF7DF001EE70F0F0
:10406E00190EEE6AE806FDE100EED9F01B0EEE6ABF
:10407E00E806FDE17E907E92000158EF10F0457249
:10408E00726F7220496E7661696C6420416E676C46
:10409E006500004D696E20416E676C652030000032
:1040AE00000000000000000053656C656374204D35
:1040BE006F746F723A200000000000000057656CAC
:1040CE00636F6D650000000000000000000000003E
:1040DE0000000801A086010000000000800F810F83
:1040EE00820F830F840F010911196169717921EE15
:1040FE0000F010EE28F0140EDBCFE3FFE806FCE232
:10410E00D30E136E000E146E010E156E96EC1FF08C
:10411E00D30E1E6E000E1F6E280E206E000E216E28
:10412E00010E226E010E236E17EC1FF00B0E276E82
:10413E00260E266E5E0EE82EFED7262EFCD7272ED6
:10414E00FAD712000C500D10D8A4B0EF20F0B2EF39
:10415E0020F0B6EF20F0000E0E6ECFEF20F0050E21
:10416E000C24026E000E0D20036E010E046E5DEC2B
:10417E0017F0030EE82EFED700F0050E0C24026E8B
:10418E00000E0D20036E000E046E5DEC17F00E6E29
:10419E000E501200000E126E12500C24026E000E03
:1041AE000D20036E12C00FF00EC010F00F2AE2EFBA
:1041BE0020F0D89010320F2EE0EF20F01050010BAF
:1041CE00046E5DEC17F0116E122A030E1264F2EFFC
:1041DE0020F0F4EF20F0D3EF20F0115012001E501B
:1041EE001F10D8A4FDEF20F0FFEF20F003EF21F019
:1041FE00000E236E17EF21F01EC017F01FC018F02F
:10420E0021C019F022C01AF0D7EC1CF0236E1EC08C
:10421E0013F01FC014F020C015F0D1EC1FF0236E68
:10422E0023501200000E5C1A000E5D1A000E5E1A6C
:10423E00800E5F1A58C048F059C049F05AC04AF073
:10424E005BC04BF05CC04CF05DC04DF05EC04EF0FC
:10425E005FC04FF03FEC08F048C058F049C059F02D
:10426E004AC05AF04BC05BF01200BDEC21F00001C9
:10427E00996FD30E176E000E186EA6EC18F0000193
:10428E009917680E106E010E116E94EC1DF0000160
:10429E009917000E8D6F320E8C6F47EC15F00001E2
:1042AE009917995112000250031004100510D8B43A
:1042BE0063EF21F065EF21F06DEF21F0000E021A91
:1042CE00000E031A000E041A800E051A02C002F028
:1042DE0003C003F004C004F005C005F01200C5844D
:1042EE00C5B47CEF21F07EEF21F077EF21F09E96A2
:1042FE00C7A884EF21F086EF21F08AEF21F0010E9E
:10430E00026E8CEF21F0000E026E02501200C5807C
:10431E00C5B094EF21F096EF21F08FEF21F09E962D
:10432E00C7A69CEF21F09EEF21F0A2EF21F0010E27
:10433E00026EA4EF21F0000E026E025012007C6E8F
:10434E000001B95107E1B50EB85DD8B0B1EF21F05B
:10435E00B3EF21F0BAEF21F0B8C0ADF07C0411EC50
:10436E001CF0BCEF21F07EEC20F0120021EE54F098
:10437E0010EE8FF0090EDBCFE3FFE806FCE28F0EA6
:10438E0000018A6F000E8B6F02EC18F000018E6F29
:10439E008E51120002500402F3CF06F0F4CF07F054
:1043AE0002500502F350072603500402F35007266D
:1043BE0006C002F007C003F01200920F930F940F85
:1043CE00950F960F890F8A0F8B0F8C0F8D0F010192
:0743DE0001232B333B0B1BF5
:1043E6001EC017F01FC018F020C019F021C01AF027
:1043F600D7EC1CF0226E225012009486948812008C
:0744060006007E9211000187
:020000040020DA
:08000000FFFFFFFFFFFFFFFF00
:020000040030CA
:0E000000FF02091EFF8181FF0FC00FE00F40BD
:00000001FF
